{
  "contractName": "PSRelation",
  "abi": [
    {
      "constant": false,
      "inputs": [
        {
          "name": "_artAddr",
          "type": "address"
        },
        {
          "name": "_user",
          "type": "address"
        }
      ],
      "name": "addPrise",
      "outputs": [],
      "payable": false,
      "stateMutability": "nonpayable",
      "type": "function"
    },
    {
      "constant": true,
      "inputs": [
        {
          "name": "_user",
          "type": "address"
        }
      ],
      "name": "getPrise",
      "outputs": [
        {
          "name": "",
          "type": "address[]"
        }
      ],
      "payable": false,
      "stateMutability": "view",
      "type": "function"
    },
    {
      "constant": false,
      "inputs": [
        {
          "name": "_artAddr",
          "type": "address"
        },
        {
          "name": "_user",
          "type": "address"
        }
      ],
      "name": "addStep",
      "outputs": [],
      "payable": false,
      "stateMutability": "nonpayable",
      "type": "function"
    },
    {
      "constant": true,
      "inputs": [
        {
          "name": "_user",
          "type": "address"
        }
      ],
      "name": "getStep",
      "outputs": [
        {
          "name": "",
          "type": "address[]"
        }
      ],
      "payable": false,
      "stateMutability": "view",
      "type": "function"
    }
  ],
  "bytecode": "0x608060405234801561001057600080fd5b506105a7806100206000396000f3fe608060405260043610610062576000357c0100000000000000000000000000000000000000000000000000000000900463ffffffff1680634426c35214610067578063766b17f71461010d578063a4dc20d6146101b3578063c37dd7a814610224575b600080fd5b34801561007357600080fd5b506100b66004803603602081101561008a57600080fd5b81019080803573ffffffffffffffffffffffffffffffffffffffff169060200190929190505050610295565b6040518080602001828103825283818151815260200191508051906020019060200280838360005b838110156100f95780820151818401526020810190506100de565b505050509050019250505060405180910390f35b34801561011957600080fd5b5061015c6004803603602081101561013057600080fd5b81019080803573ffffffffffffffffffffffffffffffffffffffff169060200190929190505050610361565b6040518080602001828103825283818151815260200191508051906020019060200280838360005b8381101561019f578082015181840152602081019050610184565b505050509050019250505060405180910390f35b3480156101bf57600080fd5b50610222600480360360408110156101d657600080fd5b81019080803573ffffffffffffffffffffffffffffffffffffffff169060200190929190803573ffffffffffffffffffffffffffffffffffffffff16906020019092919050505061042e565b005b34801561023057600080fd5b506102936004803603604081101561024757600080fd5b81019080803573ffffffffffffffffffffffffffffffffffffffff169060200190929190803573ffffffffffffffffffffffffffffffffffffffff1690602001909291905050506104d4565b005b60606000808373ffffffffffffffffffffffffffffffffffffffff1673ffffffffffffffffffffffffffffffffffffffff16815260200190815260200160002080548060200260200160405190810160405280929190818152602001828054801561035557602002820191906000526020600020905b8160009054906101000a900473ffffffffffffffffffffffffffffffffffffffff1673ffffffffffffffffffffffffffffffffffffffff168152602001906001019080831161030b575b50505050509050919050565b6060600160008373ffffffffffffffffffffffffffffffffffffffff1673ffffffffffffffffffffffffffffffffffffffff16815260200190815260200160002080548060200260200160405190810160405280929190818152602001828054801561042257602002820191906000526020600020905b8160009054906101000a900473ffffffffffffffffffffffffffffffffffffffff1673ffffffffffffffffffffffffffffffffffffffff16815260200190600101908083116103d8575b50505050509050919050565b6000808273ffffffffffffffffffffffffffffffffffffffff1673ffffffffffffffffffffffffffffffffffffffff1681526020019081526020016000208290806001815401808255809150509060018203906000526020600020016000909192909190916101000a81548173ffffffffffffffffffffffffffffffffffffffff021916908373ffffffffffffffffffffffffffffffffffffffff160217905550505050565b600160008273ffffffffffffffffffffffffffffffffffffffff1673ffffffffffffffffffffffffffffffffffffffff1681526020019081526020016000208290806001815401808255809150509060018203906000526020600020016000909192909190916101000a81548173ffffffffffffffffffffffffffffffffffffffff021916908373ffffffffffffffffffffffffffffffffffffffff16021790555050505056fea165627a7a7230582041c369019d88724a9f4446d9a096c4e91ba85c6a31462b69c7d86635f2f971840029",
  "source": "pragma solidity ^0.5.0;\ncontract ArticalStore{\n    address manager;\n\n    uint256 createArtPay = 1000;//发布文章收取作者费用\n    uint256 priseCost = 10;//点赞花费\n    uint256 hotReward = 1000;//热门奖励金额\n    uint256 hotCount = 20;//热门文章数量 默认20篇\n\n    // constructor(uint256 _priseCost,uint256 _hotReward,uint256 _createArtPay,uint256 _hotCount) public{\n    //     manager = msg.sender;\n    //     priseCost = _priseCost;\n    //     hotReward = _hotReward;\n    //     createArtPay = _createArtPay;\n    //     hotCount = _hotCount;\n    // }\n    constructor() public{\n        manager = msg.sender;\n    }\n\n    address[] all;//所有文章合约地址\n    mapping(address=>address[]) own2art;//我发表的\n    PSRelation rel;//点赞踩过的合约对象\n\n    //上一次热门评选之后发表的文章，才能参与新的热门评选\n    //每评选一次热门就清空一次\n    address[] preHot;//待评选热门文章\n\n    function createArt(\n        string memory _title,\n        string memory _author,\n        string memory _iconLink,\n        string memory _desLink,\n        string memory _infoLink\n    ) public payable{\n        require(bytes(_title).length>0);\n        require(bytes(_author).length>0);\n        require(bytes(_infoLink).length>0);\n        require(msg.value==createArtPay);\n        rel = new PSRelation();\n\n        Artical art = new Artical(_title,_author,_iconLink,_desLink,_infoLink,priseCost,msg.sender,rel);\n        all.push(address(art));\n        own2art[msg.sender].push(address(art));\n        createdMap[msg.sender]=true;\n\n        preHot.push(address(art));\n    }\n\n    function getAll() public view returns(address[] memory){\n        return all;\n    }\n\n    function getOwnArt()public view returns(address[]memory){\n        return own2art[msg.sender];\n    }\n\n    function getMyVoted(bool isPrise) public view returns(address[] memory){\n        if (isPrise){\n            return rel.getPrise(msg.sender);\n        }else{\n            return rel.getStep(msg.sender);\n        }\n    }\n\n    mapping(address=>bool) hoted;//上过热门\n    //修改热门奖励金额的请求\n    struct RCQuest{\n        string des;\n        uint256 aimMoney;\n        uint256 voteC;\n        bool isComplate;\n    }\n    RCQuest[] RCQArr;\n    mapping(address=>bool) votedMap;//已参与投票\n    mapping(address=>bool) createdMap;//记录是否发布过文章，只有发不过文章的人才能参与奖励变更投票\n\n    function requestRC(string memory _des,uint256 _aimMoney)public onlyManager{\n        RCQuest memory rq = RCQuest(\n            _des,\n            _aimMoney,\n            0,\n            false\n        );\n        RCQArr.push(rq);\n    }\n\n    function votdRC(uint256 _index)public{\n        require(votedMap[msg.sender]==false);\n        require(createdMap[msg.sender]==true);\n        require(_index<RCQArr.length);\n        RCQuest storage rq = RCQArr[_index];\n        rq.voteC++;\n        if(rq.voteC*2>RCQArr.length){\n            hotReward = rq.aimMoney;\n        }\n    }\n    //统计（赞-踩）前20篇\n    function countHot() public payable onlyManager{\n        address[] memory tmp = preHot;\n        // for (uint256 i = 0;i<preHot.length;i++){\n        //     address pre = preHot[i];\n        //     tmp.push(pre);\n        // }\n        delete preHot;\n\n\n        uint256 realCount;\n        if (hotCount>tmp.length){\n            realCount = tmp.length;\n        }else{\n            realCount = hotCount;\n        }\n        //修饰为memory的可变数组不能push\n        address[] memory hot = new address[](realCount);\n\n        for (uint256 i = 0;i<realCount;i++){\n            Artical maxPrise = Artical(tmp[i]);\n            for (uint256 j = i+1;j<tmp.length;j++){\n                Artical art = Artical(tmp[j]);\n                if (art.getVoteSub()>maxPrise.getVoteSub()){\n                    Artical artTmp = maxPrise;\n                    tmp[i] = address(art);\n                    tmp[j] = address(artTmp);\n                }\n            }\n            hot[i] = address(maxPrise);\n        }\n        //发放奖励  奖金池hotReward 的一定比例\n        //第1名          20%          20 \n        //第2,3，4，5名  10%*4         40\n        //第6~10名       6%*5         30\n        //11~20名       1%10          10\n        for (uint256 i = 0;i<hot.length;i++){\n            address tmphot = hot[i];\n            uint256 money;\n            if (i==0){\n                money = hotReward/5;\n            }else if(i>=1&&i<5){\n                money = hotReward/10;\n            }else if(i>=5&&i<10){\n                money = hotReward/6;\n            }else{\n                money = hotReward/100;\n            }\n            Artical artical = Artical(tmphot);\n            artical.pay.value(money)(money/5);\n        }\n\n    }\n\n    //平台提现\n    function cashCheck(uint256 _money) public payable onlyManager{\n        require(_money>0);\n        require(manager==msg.sender);\n        require(_money<getBalance());\n        msg.sender.transfer(_money);\n    }\n    function getBalance() private view returns(uint256){\n        return address(this).balance;\n    }\n    modifier onlyManager{\n        require(msg.sender==manager);\n        _;\n    }\n    \n}\n//赞 踩关系\ncontract PSRelation{\n    //点赞人=> 点赞过的文章\n    mapping(address=>address[]) prise;\n    mapping(address=>address[]) step;\n\n    function addPrise(address _artAddr,address _user)public{\n        prise[_user].push(_artAddr);\n    }\n\n    function getPrise(address _user)public view returns(address[] memory){\n        return prise[_user];\n    }\n\n    function addStep(address _artAddr,address _user)public{\n        step[_user].push(_artAddr);\n    }\n\n    function getStep(address _user)public view returns(address[] memory){\n        return step[_user];\n    }\n}\n//文章合约\ncontract Artical{\n\n    address manager;//管理员地址\n    PSRelation rel;//引入赞和踩的仓库\n\n    string title;\n    string author;\n    string iconLink;//封面个\n    string desLink;//描述\n    string infoLink;//文章详情\n    \n    uint256 pCost;//赞花费\n\n    address[] prise;//赞成人数组\n    mapping(address=>bool) isCanReward;//是否可以领取热门奖励\n    mapping(address=>bool) isReward;//是否领取过热门奖励\n    uint256 rewardMoney;\n    address[] step;//踩\n\n    mapping(address=>bool) isDo;//是否操作\n\n    constructor(\n        string memory _title,\n        string memory _author,\n        string memory _iconLink,\n        string memory _desLink,\n        string memory _infoLink,\n        uint256 _pCost,\n        address _manager,\n        PSRelation _rel\n        ) \n        public{\n        title = _title;\n        author = _author;\n        iconLink = _iconLink;\n        desLink = _desLink;\n        infoLink = _infoLink;\n        pCost = _pCost;\n        manager = _manager;\n        rel = _rel;\n    }\n    \n    function pay(uint256 _payReward) public payable{\n        //奖励的20%平分给点赞者\n        rewardMoney = _payReward/prise.length;\n        for (uint256 j = 0;j<prise.length;j++){\n            address othersTmp = prise[j];\n            isCanReward[othersTmp]=true;\n        }\n        \n    }\n    \n    function getReward() public payable{\n        require(isCanReward[msg.sender]);\n        require(isReward[msg.sender]);\n        msg.sender.transfer(rewardMoney);\n        isReward[msg.sender]=true;\n    }\n    \n    function getPrise() public view returns(address[]memory){\n        return prise;\n    }\n    function getPCost() public view returns(uint256){\n        return pCost;\n    }\n\n    function vote(bool _prise)public payable{\n        require( msg.sender != address(0));\n        require( manager != msg.sender );\n        require( isDo[msg.sender] == false);\n        if (_prise == true){\n            require(msg.value==pCost);\n            prise.push(msg.sender);\n            rel.addPrise(address(this),msg.sender);\n        }else{\n            step.push(msg.sender);\n            rel.addStep(address(this),msg.sender);\n\n        }\n        isDo[msg.sender] = true;\n    } \n    function getVoteSub()public view returns(uint256){\n        if (prise.length>step.length){\n            return prise.length-step.length;\n        }else{\n            return 0;\n        }\n    }\n\n    function cashCheck(uint256 _money) public payable onlyManager{\n        require(_money>0);\n        require(_money<getBalance());\n        msg.sender.transfer(_money);\n    }\n\n    function getInfo() public view returns( \n        string memory,\n        string memory,\n        string memory,\n        string memory,\n        string memory,\n        uint256 ,\n        uint256 ,\n        uint256\n         ){\n        return(\n            title,\n            author,\n            iconLink,\n            desLink,\n            infoLink,\n            prise.length,\n            step.length,\n            getBalance()\n        );\n    }\n    function getBalance() private view returns(uint256){\n        return address(this).balance;\n    }\n\n\n    modifier onlyManager{\n        require(msg.sender==manager);\n        _;\n    }\n\n}",
  "sourcePath": "/Users/jackwei/Desktop/code/eth/articalstore/contracts/ArticalStore.sol",
  "compiler": {
    "name": "solc",
    "version": "0.5.0+commit.1d4f565a.Emscripten.clang"
  },
  "schemaVersion": "3.0.0",
  "updatedAt": "2019-01-06T11:05:29.734Z",
  "devdoc": {
    "methods": {}
  },
  "userdoc": {
    "methods": {}
  }
}